{
  "_format": "hh-sol-artifact-1",
  "contractName": "MyContract",
  "sourceName": "contracts/MyContract.sol",
  "abi": [
    {
      "inputs": [
        {
          "internalType": "string",
          "name": "_message",
          "type": "string"
        },
        {
          "internalType": "uint256",
          "name": "_number",
          "type": "uint256"
        }
      ],
      "stateMutability": "nonpayable",
      "type": "constructor"
    },
    {
      "anonymous": false,
      "inputs": [
        {
          "indexed": false,
          "internalType": "string",
          "name": "oldMessage",
          "type": "string"
        },
        {
          "indexed": false,
          "internalType": "string",
          "name": "newMessage",
          "type": "string"
        }
      ],
      "name": "MessageUpdated",
      "type": "event"
    },
    {
      "inputs": [],
      "name": "checkBalance",
      "outputs": [
        {
          "internalType": "uint256",
          "name": "",
          "type": "uint256"
        }
      ],
      "stateMutability": "view",
      "type": "function"
    },
    {
      "inputs": [],
      "name": "getOwner",
      "outputs": [
        {
          "internalType": "address",
          "name": "",
          "type": "address"
        }
      ],
      "stateMutability": "view",
      "type": "function"
    },
    {
      "inputs": [
        {
          "internalType": "uint256",
          "name": "_increment",
          "type": "uint256"
        }
      ],
      "name": "incrementNumber",
      "outputs": [],
      "stateMutability": "nonpayable",
      "type": "function"
    },
    {
      "inputs": [],
      "name": "message",
      "outputs": [
        {
          "internalType": "string",
          "name": "",
          "type": "string"
        }
      ],
      "stateMutability": "view",
      "type": "function"
    },
    {
      "inputs": [],
      "name": "number",
      "outputs": [
        {
          "internalType": "uint256",
          "name": "",
          "type": "uint256"
        }
      ],
      "stateMutability": "view",
      "type": "function"
    },
    {
      "inputs": [],
      "name": "owner",
      "outputs": [
        {
          "internalType": "address",
          "name": "",
          "type": "address"
        }
      ],
      "stateMutability": "view",
      "type": "function"
    },
    {
      "inputs": [],
      "name": "resetMessage",
      "outputs": [],
      "stateMutability": "nonpayable",
      "type": "function"
    },
    {
      "inputs": [
        {
          "internalType": "string",
          "name": "_newMessage",
          "type": "string"
        }
      ],
      "name": "setMessage",
      "outputs": [],
      "stateMutability": "nonpayable",
      "type": "function"
    },
    {
      "inputs": [
        {
          "internalType": "uint256",
          "name": "_newNumber",
          "type": "uint256"
        }
      ],
      "name": "setNumber",
      "outputs": [],
      "stateMutability": "nonpayable",
      "type": "function"
    },
    {
      "stateMutability": "payable",
      "type": "receive"
    }
  ],
  "bytecode": "0x60806040523480156200001157600080fd5b5060405162000e6338038062000e638339818101604052810190620000379190620001d9565b81600090805190602001906200004f929190620000a0565b508060018190555033600260006101000a81548173ffffffffffffffffffffffffffffffffffffffff021916908373ffffffffffffffffffffffffffffffffffffffff160217905550505062000388565b828054620000ae90620002da565b90600052602060002090601f016020900481019282620000d257600085556200011e565b82601f10620000ed57805160ff19168380011785556200011e565b828001600101855582156200011e579182015b828111156200011d57825182559160200191906001019062000100565b5b5090506200012d919062000131565b5090565b5b808211156200014c57600081600090555060010162000132565b5090565b600062000167620001618462000267565b62000233565b9050828152602081018484840111156200018057600080fd5b6200018d848285620002a4565b509392505050565b600082601f830112620001a757600080fd5b8151620001b984826020860162000150565b91505092915050565b600081519050620001d3816200036e565b92915050565b60008060408385031215620001ed57600080fd5b600083015167ffffffffffffffff8111156200020857600080fd5b620002168582860162000195565b92505060206200022985828601620001c2565b9150509250929050565b6000604051905081810181811067ffffffffffffffff821117156200025d576200025c6200033f565b5b8060405250919050565b600067ffffffffffffffff8211156200028557620002846200033f565b5b601f19601f8301169050602081019050919050565b6000819050919050565b60005b83811015620002c4578082015181840152602081019050620002a7565b83811115620002d4576000848401525b50505050565b60006002820490506001821680620002f357607f821691505b602082108114156200030a576200030962000310565b5b50919050565b7f4e487b7100000000000000000000000000000000000000000000000000000000600052602260045260246000fd5b7f4e487b7100000000000000000000000000000000000000000000000000000000600052604160045260246000fd5b62000379816200029a565b81146200038557600080fd5b50565b610acb80620003986000396000f3fe60806040526004361061008a5760003560e01c8063893d20e811610059578063893d20e81461013c5780638da5cb5b14610167578063bf60ec6e14610192578063c71daccb146101a9578063e21f37ce146101d457610091565b8063368b8772146100965780633fb5c1cb146100bf5780638151b2f5146100e85780638381f58a1461011157610091565b3661009157005b600080fd5b3480156100a257600080fd5b506100bd60048036038101906100b891906105f2565b6101ff565b005b3480156100cb57600080fd5b506100e660048036038101906100e19190610633565b6102e2565b005b3480156100f457600080fd5b5061010f600480360381019061010a9190610633565b6102ec565b005b34801561011d57600080fd5b50610126610308565b604051610133919061082d565b60405180910390f35b34801561014857600080fd5b5061015161030e565b60405161015e9190610799565b60405180910390f35b34801561017357600080fd5b5061017c610338565b6040516101899190610799565b60405180910390f35b34801561019e57600080fd5b506101a761035e565b005b3480156101b557600080fd5b506101be61043c565b6040516101cb919061082d565b60405180910390f35b3480156101e057600080fd5b506101e9610444565b6040516101f691906107b4565b60405180910390f35b600080805461020d906109ae565b80601f0160208091040260200160405190810160405280929190818152602001828054610239906109ae565b80156102865780601f1061025b57610100808354040283529160200191610286565b820191906000526020600020905b81548152906001019060200180831161026957829003601f168201915b5050505050905081600090805190602001906102a39291906104d2565b507f5b4717af615de779c9c12885d202645882ad93995957a99a4a1a145b3ccdbc108160006040516102d69291906107d6565b60405180910390a15050565b8060018190555050565b80600160008282546102fe91906108da565b9250508190555050565b60015481565b6000600260009054906101000a900473ffffffffffffffffffffffffffffffffffffffff16905090565b600260009054906101000a900473ffffffffffffffffffffffffffffffffffffffff1681565b600260009054906101000a900473ffffffffffffffffffffffffffffffffffffffff1673ffffffffffffffffffffffffffffffffffffffff163373ffffffffffffffffffffffffffffffffffffffff16146103ee576040517f08c379a00000000000000000000000000000000000000000000000000000000081526004016103e59061080d565b60405180910390fd5b6040518060400160405280600f81526020017f44656661756c74204d6573736167650000000000000000000000000000000000815250600090805190602001906104399291906104d2565b50565b600047905090565b60008054610451906109ae565b80601f016020809104026020016040519081016040528092919081815260200182805461047d906109ae565b80156104ca5780601f1061049f576101008083540402835291602001916104ca565b820191906000526020600020905b8154815290600101906020018083116104ad57829003601f168201915b505050505081565b8280546104de906109ae565b90600052602060002090601f0160209004810192826105005760008555610547565b82601f1061051957805160ff1916838001178555610547565b82800160010185558215610547579182015b8281111561054657825182559160200191906001019061052b565b5b5090506105549190610558565b5090565b5b80821115610571576000816000905550600101610559565b5090565b600061058861058384610879565b610848565b9050828152602081018484840111156105a057600080fd5b6105ab84828561096c565b509392505050565b600082601f8301126105c457600080fd5b81356105d4848260208601610575565b91505092915050565b6000813590506105ec81610a7e565b92915050565b60006020828403121561060457600080fd5b600082013567ffffffffffffffff81111561061e57600080fd5b61062a848285016105b3565b91505092915050565b60006020828403121561064557600080fd5b6000610653848285016105dd565b91505092915050565b61066581610930565b82525050565b6000610676826108be565b61068081856108c9565b935061069081856020860161097b565b61069981610a6d565b840191505092915050565b600081546106b1816109ae565b6106bb81866108c9565b945060018216600081146106d657600181146106e85761071b565b60ff198316865260208601935061071b565b6106f1856108a9565b60005b83811015610713578154818901526001820191506020810190506106f4565b808801955050505b50505092915050565b60006107316024836108c9565b91507f4f6e6c7920746865206f776e65722063616e20726573657420746865206d657360008301527f73616765000000000000000000000000000000000000000000000000000000006020830152604082019050919050565b61079381610962565b82525050565b60006020820190506107ae600083018461065c565b92915050565b600060208201905081810360008301526107ce818461066b565b905092915050565b600060408201905081810360008301526107f0818561066b565b9050818103602083015261080481846106a4565b90509392505050565b6000602082019050818103600083015261082681610724565b9050919050565b6000602082019050610842600083018461078a565b92915050565b6000604051905081810181811067ffffffffffffffff8211171561086f5761086e610a3e565b5b8060405250919050565b600067ffffffffffffffff82111561089457610893610a3e565b5b601f19601f8301169050602081019050919050565b60008190508160005260206000209050919050565b600081519050919050565b600082825260208201905092915050565b60006108e582610962565b91506108f083610962565b9250827fffffffffffffffffffffffffffffffffffffffffffffffffffffffffffffffff03821115610925576109246109e0565b5b828201905092915050565b600061093b82610942565b9050919050565b600073ffffffffffffffffffffffffffffffffffffffff82169050919050565b6000819050919050565b82818337600083830152505050565b60005b8381101561099957808201518184015260208101905061097e565b838111156109a8576000848401525b50505050565b600060028204905060018216806109c657607f821691505b602082108114156109da576109d9610a0f565b5b50919050565b7f4e487b7100000000000000000000000000000000000000000000000000000000600052601160045260246000fd5b7f4e487b7100000000000000000000000000000000000000000000000000000000600052602260045260246000fd5b7f4e487b7100000000000000000000000000000000000000000000000000000000600052604160045260246000fd5b6000601f19601f8301169050919050565b610a8781610962565b8114610a9257600080fd5b5056fea2646970667358221220e3070e5f009ab4727f53f5b60becd168efc56d25a2c2fce005509106b579703664736f6c63430008000033",
  "linkReferences": {},
  "deployedLinkReferences": {}
}